:100000000C942A000C9447000C9447000C94470071
:100010000C9447000C9447000C9447000C946F1606
:100020000C9447000C9447000C94451D0C94470019
:100030000C9447000C94E51F0C9447000C94470067
:100040000C94FE070C9447000C9447000C94470056
:100050000C94470011241FBECFE5D8E0DEBFCDBF12
:1000600015E0A0E6B0E0ECE4F0E502C005900D92EA
:10007000AA33B107D9F715E0AAE3B5E001C01D9294
:10008000A137B107E1F70E9420200C9424280C949A
:100090000000EF92FF920F931F937B018C0120E0F1
:1000A00030E040E05FE40E94F50388238CF0C80153
:1000B000B70120E030E040E05FE40E94C1010E940F
:1000C00055049B01AC01205030404040504806C0D0
:1000D000C801B7010E9455049B01AC01B901CA01D6
:1000E0001F910F91FF90EF900895A0E0B0E0EBE733
:1000F000F0E00C94ED27DC012B01FA019C91923089
:1001000008F439C1EB018881823008F433C194309E
:1001100069F4843009F02FC111969C91119789815F
:10012000981709F428C1A3E2B4E025C1843009F48A
:1001300021C18230A9F4923009F01DC19A01AD01AC
:1001400088E0EA010990AE01E90109929E0181501F
:10015000C1F7E201898111969C918923818308C1AD
:10016000923009F407C112962D903C901397EB0141
:100170008A819B811496AD90BD90CD90DC901797AD
:10018000EC80FD800E811F819101281B390BB90184
:1001900037FF04C066277727621B730B6032710537
:1001A0000CF061C0121613066CF537014801062EDB
:1001B00004C096948794779467940A94D2F721E0C8
:1001C00030E040E050E004C0220F331F441F551FB1
:1001D0006A95D2F721503040404050402E213F21B7
:1001E00040235123211531054105510521F021E01E
:1001F00030E040E050E079018A01E628F72808293C
:1002000019293CC0232BD1F1260E371E350146019A
:10021000062E04C096948794779467940A94D2F734
:1002200021E030E040E050E004C0220F331F441FC3
:10023000551F6A95D2F721503040404050402A2146
:100240003B214C215D21211531054105510521F04E
:1002500021E030E040E050E059016A01A628B728CB
:10026000C828D9280BC0821593052CF01C01AA249C
:10027000BB24650103C0EE24FF24870111969C91E5
:10028000D20111968C91981709F445C0992339F041
:10029000A80197012A193B094C095D0906C0A6016E
:1002A00095012E193F09400B510B57FD08C01182D3
:1002B0003382228224833583468357831DC081E0A5
:1002C00081833382228288279927DC01821B930B4A
:1002D000A40BB50B84839583A683B7830DC0220F2F
:1002E000331F441F551F24833583468357838281E0
:1002F000938101979383828324813581468157813D
:10030000DA01C9010197A109B1098F5F9F4FAF4F72
:10031000BF4328F30BC0918333822282EA0CFB1C7B
:100320000C1D1D1DE482F5820683178383E0808304
:10033000248135814681578157FF1AC0C901AA27F8
:1003400097FDA095BA2F81709070A070B0705695EF
:10035000479537952795822B932BA42BB52B848318
:100360009583A683B7838281938101969383828349
:10037000DF0101C0D201CD01CDB7DEB7E2E10C94BF
:100380000928A0E2B0E0E7ECF1E00C94F9276983DA
:100390007A838B839C832D833E834F835887E9E048
:1003A000EE2EF12CEC0EFD1ECE010196B7010E943F
:1003B00046068E010F5E1F4FCE010596B8010E94C2
:1003C00046068A8991E089278A8BC701B801AE0168
:1003D000475E5F4F0E9475000E947105A096E6E09F
:1003E0000C941528A0E2B0E0E8EFF1E00C94F927B6
:1003F00069837A838B839C832D833E834F835887C5
:10040000F9E0EF2EF12CEC0EFD1ECE010196B701A6
:100410000E9446068E010F5E1F4FCE010596B80161
:100420000E944606C701B801AE01475E5F4F0E94B9
:1004300075000E947105A096E6E00C941528A0E2D4
:10044000B0E0E5E2F2E00C94ED2769837A838B83D8
:100450009C832D833E834F835887CE010196BE0136
:10046000675F7F4F0E944606CE010596BE016F5E14
:100470007F4F0E9446069985923088F089898230A4
:10048000C8F0943019F4823051F404C0843029F457
:10049000923081F483E294E0C6C0923049F420E0C7
:1004A0009A858A89981321E02A87CE010996BBC0D4
:1004B000823049F420E09A858A89981321E02A8BBA
:1004C000CE014196B0C02D843E844F8458886D88FB
:1004D0007E888F88988CEE24FF248701AA24BB2471
:1004E000650140E050E060E070E0E0E0F0E0C10174
:1004F00081709070892BE9F0E60CF71C081D191D1E
:100500009A01AB012A0D3B1D4C1D5D1D80E090E062
:10051000A0E0B0E0E614F7040805190520F481E036
:1005200090E0A0E0B0E0BA01A901480F591F6A1F8E
:100530007B1FAA0CBB1CCC1CDD1C97FE08C081E0F5
:1005400090E0A0E0B0E0A82AB92ACA2ADB2A3196B6
:10055000E032F10549F0660C771C881C991C569412
:10056000479437942794C3CFFA85EA892B893C892D
:100570008B859C85280F391F2E5F3F4F17C0CA01FE
:1005800081709070892B61F016950795F794E79428
:1005900080E090E0A0E0B0E8E82AF92A0A2B1B2BC3
:1005A00076956795579547952F5F3F4F77FDE7CF36
:1005B0000CC0440F551F661F771F17FD4160EE0CDE
:1005C000FF1C001F111F21503040403090E05907A0
:1005D00090E0690790E4790760F32B8F3C8FDB0193
:1005E000CA018F779070A070B07080349105A1051A
:1005F000B10561F447FD0AC0E114F10401051105DC
:1006000029F0405C5F4F6F4F7F4F40781A8EFE1786
:1006100011F081E08A8F4D8F5E8F6F8F78A383E01A
:10062000898FCE0149960E947105A096E2E10C9453
:100630000928A8E1B0E0EFE1F3E00C94F527698325
:100640007A838B839C832D833E834F835887B9E0C5
:10065000EB2EF12CEC0EFD1ECE010196B7010E948F
:1006600046068E010F5E1F4FCE010596B8010E940F
:1006700046062985223008F47EC03989323010F4CC
:10068000B8017CC08A859A8989278A87243011F02D
:10069000223031F4231709F06EC063E274E06EC0BB
:1006A000343039F41D861E861F86188A1C861B86E8
:1006B00004C0323021F484E08987B7015FC02B8504
:1006C0003C858B899C89281B390B3C872B87ED84C3
:1006D000FE840F851889AD88BE88CF88D88CEA142F
:1006E000FB040C051D0540F4EE0CFF1C001F111F40
:1006F000215030403C872B8720E030E040E050E044
:1007000080E090E0A0E0B0E460E070E0EA14FB0478
:100710000C051D0540F0282B392B4A2B5B2BEA18C2
:10072000FB080C091D09B695A79597958795EE0CC2
:10073000FF1C001F111F6F5F7F4F6F31710531F775
:10074000DA01C9018F779070A070B0708034910584
:10075000A105B10561F427FD0AC0E114F10401050A
:10076000110529F0205C3F4F4F4F5F4F20782D87B8
:100770003E874F87588BBE01675F7F4FCB010E943A
:1007800071056896EAE00C941128A8E1B0E0EBEC62
:10079000F3E00C94F92769837A838B839C832D8300
:1007A0003E834F83588789E0E82EF12CEC0EFD1E26
:1007B000CE010196B7010E9446068E010F5E1F4FC3
:1007C000CE010596B8010E9446068985823040F028
:1007D0008989823028F0C701B8010E94BE0601C095
:1007E0008FEF6896E6E00C941528A8E1B0E0EBEFF7
:1007F000F3E00C94F92769837A838B839C832D83A0
:100800003E834F83588789E0E82EF12CEC0EFD1EC5
:10081000CE010196B7010E9446068E010F5E1F4F62
:10082000CE010596B8010E9446068985823040F0C7
:100830008989823028F0C701B8010E94BE0601C034
:100840008FEF6896E6E00C941528A8E1B0E0EBE2A3
:10085000F4E00C94F92769837A838B839C832D833E
:100860003E834F83588789E0E82EF12CEC0EFD1E65
:10087000CE010196B7010E9446068E010F5E1F4F02
:10088000CE010596B8010E9446068985823040F067
:100890008989823028F0C701B8010E94BE0601C0D4
:1008A00081E06896E6E00C941528ACE0B0E0EBE55A
:1008B000F4E00C94FD2769837A838B839C83CE01BB
:1008C0000196BE016B5F7F4F0E9446068D8182308C
:1008D00061F1823050F1843021F48E81882351F10E
:1008E0002EC02F81388537FD20C06E812F31310514
:1008F0001CF06623F9F023C08EE190E0821B930B7D
:1009000029853A854B855C8504C056954795379572
:1009100027958A95D2F76623B1F05095409530958A
:1009200021953F4F4F4F5F4F0EC020E030E040E039
:1009300050E009C02FEF3FEF4FEF5FE704C020E02A
:1009400030E040E050E8B901CA012C96E2E00C9496
:100950001928A8E0B0E0EFEAF4E00C94F5277B0159
:100960008C01611571058105910519F482E0898377
:1009700060C083E089838EE1C82ED12CDC82CB82DB
:10098000ED82FE820F831887C801B7010E942205FD
:10099000FC013197F7FF3BC0222733272E1B3F0B6B
:1009A00057016801022E04C0D694C794B794A79447
:1009B0000A94D2F740E050E060E070E081E090E01F
:1009C000A0E0B0E004C0880F991FAA1FBB1F2A95A2
:1009D000D2F70197A109B1098E219F21A023B1234C
:1009E0000097A105B10521F041E050E060E070E022
:1009F0004A295B296C297D294D835E836F83788723
:100A00008EE190E08E1B9F0B9C838B8312C03097EE
:100A100081F00E2E04C0EE0CFF1C001F111F0A9463
:100A2000D2F7ED82FE820F831887CE1ADF0ADC82AE
:100A3000CB821A82CE0101960E9471052896EAE0C7
:100A40000C941128EF92FF920F931F937B018C015E
:100A500080E0E81680E0F80681E0080780E01807EB
:100A600088F48FEFE816F1040105110531F028F044
:100A700088E090E0A0E0B0E017C080E090E0A0E067
:100A8000B0E012C080E0E81680E0F80680E00807D9
:100A900081E0180728F088E190E0A0E0B0E004C011
:100AA00080E190E0A0E0B0E020E230E040E050E003
:100AB000281B390B4A0B5B0B04C016950795F7945E
:100AC000E7948A95D2F7F701E55DFB4F8081281BFB
:100AD000310941095109C9011F910F91FF90EF9010
:100AE0000895DF92EF92FF920F931F93FC01E48031
:100AF000F58006811781D1808081823048F480E0C2
:100B000090E0A0E1B0E0E82AF92A0A2B1B2BA5C04F
:100B1000843009F49FC0823021F4EE24FF24870141
:100B200005C0E114F1040105110519F4E0E0F0E05D
:100B300096C0628173819FEF623879070CF05BC0C9
:100B400022E83FEF261B370B2A3131052CF020E03D
:100B500030E040E050E02AC0B801A701022E04C0F6
:100B600076956795579547950A94D2F781E090E07E
:100B7000A0E0B0E004C0880F991FAA1FBB1F2A95F0
:100B8000D2F70197A109B1098E219F21A023B1239A
:100B90000097A105B10521F081E090E0A0E0B0E070
:100BA0009A01AB01282B392B4A2B5B2BDA01C901A7
:100BB0008F779070A070B07080349105A105B10559
:100BC00039F427FF09C0205C3F4F4F4F5F4F04C0EF
:100BD000215C3F4F4F4F5F4FE0E0F0E02030A0E05E
:100BE0003A07A0E04A07A0E45A0710F0E1E0F0E07D
:100BF00079018A0127C06038710564F5FB01E1586D
:100C0000FF4FD801C7018F779070A070B07080340B
:100C10009105A105B10539F4E7FE0DC080E490E02F
:100C2000A0E0B0E004C08FE390E0A0E0B0E0E80E08
:100C3000F91E0A1F1B1F17FF05C016950795F7948D
:100C4000E794319687E016950795F794E7948A958F
:100C5000D1F705C0EE24FF248701EFEFF0E06E2FFF
:100C6000679566276795902F9F77D794DD24D79453
:100C70008E2F8695492F462B582F5D29B701CA0123
:100C80001F910F91FF90EF90DF900895FC01DB0121
:100C9000408151812281622F6F7770E0221F2227CD
:100CA000221F9381892F880F822B282F30E0991FD4
:100CB0009927991F11969C93119721153105A9F534
:100CC000411551056105710511F482E037C082E8D4
:100CD0009FEF13969C938E9312979A01AB0167E056
:100CE000220F331F441F551F6A95D1F783E08C9361
:100CF0000DC0220F331F441F551F12968D919C91DA
:100D00001397019713969C938E931297203080E04F
:100D1000380780E0480780E4580758F314962D936D
:100D20003D934D935C93179708952F3F310579F4C8
:100D3000411551056105710519F484E08C930895FE
:100D400064FF03C081E08C9312C01C9210C02F5727
:100D5000304013963C932E93129783E08C9387E058
:100D6000440F551F661F771F8A95D1F7706414963C
:100D70004D935D936D937C93179708951F93DC01BA
:100D8000FB019C91923008F447C08081823008F4C6
:100D900043C0943051F411961C91843099F58181AF
:100DA000682F70E0611B71093FC0843021F09230E0
:100DB00031F48230B9F18181882389F12DC01196F7
:100DC0001C9111978230F1F081811817D9F4129695
:100DD0002D913C911397828193818217930794F010
:100DE00028173907BCF014968D919D910D90BC91F8
:100DF000A02D2481358146815781281739074A075C
:100E00005B0718F4112341F00AC082179307A40767
:100E1000B50740F4112319F061E070E005C06FEFF1
:100E20007FEF02C060E070E0CB011F910895DF9377
:100E3000CF930F92CDB7DEB7898327E230E0A7E2E8
:100E4000B0E0E7E2F0E0808180648C938C91F9015E
:100E5000808327E230E0A7E2B0E0E7E2F0E08081C3
:100E60008F778C938C91F901808327E230E0A7E2A1
:100E7000B0E0E7E2F0E0808180628C938C91F90130
:100E8000808326E230E0A6E2B0E0E6E2F0E0808196
:100E900080688C938C91F9018083A6E2B0E0E6E251
:100EA000F0E08081887F8C93A6E2B0E0E6E2F0E09B
:100EB00090818981892B8C930F90CF91DF91089538
:100EC000DF93CF9300D00F92CDB7DEB79A8389839B
:100ED0006B8326E230E0A6E2B0E0E6E2F0E080815B
:100EE00088608C938C91F90180830E941918A7E285
:100EF000B0E0E7E2F0E08081807E8C93A7E2B0E092
:100F0000E7E2F0E090818B81892B8C9389819A8133
:100F100090933D0580933C0526E230E0A6E2B0E0E8
:100F2000E6E2F0E0808180648C938C91F90180830B
:100F30000F900F900F90CF91DF910895DF93CF9393
:100F400000D0CDB7DEB78A83A7E2B0E0E7E2F0E0F9
:100F50008081807E8C93A7E2B0E0E7E2F0E09081B0
:100F60008A81892B8C9326E230E0A6E2B0E0E6E2AB
:100F7000F0E0808180648C938C91F9018083E6E2BB
:100F8000F0E0808182958F70882F90E08170907062
:100F90000097A9F3E5E2F0E08081898326E230E062
:100FA000A6E2B0E0E6E2F0E0808180618C938C9173
:100FB000F901808389810F900F90CF91DF9108957F
:100FC000DF93CF9300D00F92CDB7DEB79B838A8398
:100FD00082E089838A819B81009739F08A819B8195
:100FE00090933B0580933A0502C081E08983898113
:100FF0000F900F900F90CF91DF9108951F920F9255
:101000000FB60F9211242F933F934F935F936F93DB
:101010007F938F939F93AF93BF93EF93FF93DF9350
:10102000CF93CDB7DEB780913A0590913B050097FD
:1010300081F0A0913C05B0913D05E5E2F0E08081B2
:10104000882F90E08D939C93E0913A05F0913B05B9
:101050000995CF91DF91FF91EF91BF91AF919F9152
:101060008F917F916F915F914F913F912F910F9051
:101070000FBE0F901F9018950F931F93DF93CF9380
:10108000CDB7DEB7C655D0400FB6F894DEBF0FBE61
:10109000CDBF81E06FEF0E94DE1182E067E041E0AA
:1010A0000E94A11082E066E041E00E94A11082E06F
:1010B00065E041E00E94A110FE01ED5AFF4F80E083
:1010C00090E0A0EFB1E480839183A283B3838E018B
:1010D000015B1F4FFE01ED5AFF4F608171818281DC
:1010E00093812BEA3AEA4AE250E40E941F02DC01B3
:1010F000CB01F80180839183A283B383FE01E15B7E
:10110000FF4F608171818281938120E030E040E86F
:101110005FE30E942504882334F4FE01E25BFF4F65
:1011200081E08083E0C0FE01E15BFF4F608171815F
:101130008281938120E030E04FE753E40E94C503B1
:1011400018160CF0C0C0FE01ED5AFF4F608171818E
:101150008281938120E030E04AE754E40E94190341
:10116000DC01CB01FE01E65BFF4F80839183A2830C
:10117000B3838E010A5B1F4FFE01E65BFF4F608168
:1011800071818281938120E030E04AEF54E40E9433
:101190001F02DC01CB01F80180839183A283B3831A
:1011A000FE01EA5BFF4F608171818281938120E0C3
:1011B00030E040E85FE30E942504882344F4FE0108
:1011C000EC5BFF4F81E090E09183808364C0FE017F
:1011D000EA5BFF4F608171818281938120E03FEF64
:1011E0004FE757E40E94C50318160CF043C0FE01F8
:1011F000E65BFF4F608171818281938120E030E066
:1012000040E251E40E941F02DC01CB018E010C5B25
:101210001F4FBC01CD010E944900DC01CB01F80148
:10122000918380831FC0FE01EE5BFF4F88EC90E04E
:1012300091838083FE01EE5BFF4F80819181019756
:10124000F1F7FE01EE5BFF4F91838083DE01AC5B23
:10125000BF4FFE01EC5BFF4F80819181019711969A
:101260009C938E93FE01EC5BFF4F808191810097F0
:10127000D1F642C08E010C5B1F4FFE01EA5BFF4FAF
:1012800060817181828193810E944900DC01CB01E0
:10129000F80191838083DE01A05CBF4FFE01EC5B0F
:1012A000FF4F8081918111969C938E93FE01E05CAB
:1012B000FF4F808191810197F1F7FE01E05CFF4FC4
:1012C0009183808319C08E01025B1F4FFE01E15B99
:1012D000FF4F60817181828193810E944900DC010E
:1012E000CB01F8018083FE01E25BFF4F80818FAF6D
:1012F0008FAD8A95F1F78FAF88E30E947F0B80E076
:1013000090E0A8ECB2E48BAF9CAFADAFBEAF6BADDD
:101310007CAD8DAD9EAD2BEA3AEA4AE250E40E94E4
:101320001F02DC01CB018FAB98AFA9AFBAAF6FA999
:1013300078AD89AD9AAD20E030E040E85FE30E94EF
:10134000250488231CF481E08EAB91C06FA978AD91
:1013500089AD9AAD20E030E04FE753E40E94C50329
:1013600018160CF07BC06BAD7CAD8DAD9EAD20E052
:1013700030E04AE754E40E941903DC01CB018AAB58
:101380009BABACABBDAB6AA97BA98CA99DA920E0A6
:1013900030E04AEF54E40E941F02DC01CB018EA72B
:1013A0009FA7A8ABB9AB6EA57FA588A999A920E096
:1013B00030E040E85FE30E94250488232CF481E0BC
:1013C00090E09DA78CA73FC06EA57FA588A999A98D
:1013D00020E03FEF4FE757E40E94C50318164CF595
:1013E0006AA97BA98CA99DA920E030E040E251E4E4
:1013F0000E941F02DC01CB01BC01CD010E9449000B
:10140000DC01CB019DA78CA70FC088EC90E09BA7C7
:101410008AA78AA59BA50197F1F79BA78AA78CA508
:101420009DA501979DA78CA78CA59DA5009769F701
:1014300024C06EA57FA588A999A90E944900DC0156
:10144000CB019DA78CA78CA59DA599A788A788A54A
:1014500099A50197F1F799A788A70FC06FA978AD53
:1014600089AD9AAD0E944900DC01CB018EAB8EA9FB
:101470008FA38FA18A95F1F78FA38CE00E947F0B39
:1014800080E090E0A8ECB2E48BA39CA3ADA3BEA344
:101490006BA17CA18DA19EA12BEA3AEA4AE250E41D
:1014A0000E941F02DC01CB018F8F98A3A9A3BAA3CE
:1014B0006F8D78A189A19AA120E030E040E85FE338
:1014C0000E94250488231CF481E08E8F91C06F8DCB
:1014D00078A189A19AA120E030E04FE753E40E946F
:1014E000C50318160CF07BC06BA17CA18DA19EA139
:1014F00020E030E04AE754E40E941903DC01CB010C
:101500008A8F9B8FAC8FBD8F6A8D7B8D8C8D9D8DCF
:1015100020E030E04AEF54E40E941F02DC01CB01DE
:101520008E8B9F8BA88FB98F6E897F89888D998DBF
:1015300020E030E040E85FE30E94250488232CF49B
:1015400081E090E09D8B8C8B3FC06E897F89888D78
:10155000998D20E03FEF4FE757E40E94C50318162E
:101560004CF56A8D7B8D8C8D9D8D20E030E040E2C6
:1015700051E40E941F02DC01CB01BC01CD010E949D
:101580004900DC01CB019D8B8C8B0FC088EC90E077
:101590009B8B8A8B8A899B890197F1F79B8B8A8B1E
:1015A0008C899D8901979D8B8C8B8C899D89009757
:1015B00069F724C06E897F89888D998D0E944900C2
:1015C000DC01CB019D8B8C8B8C899D89998B888BC1
:1015D000888999890197F1F7998B888B0FC06F8D56
:1015E00078A189A19AA10E944900DC01CB018E8FCC
:1015F0008E8D8F878F858A95F1F78F8781E00E9486
:101600007F0B80E090E0A0E0B0E48B879C87AD8703
:10161000BE876B857C858D859E8520E030E04AEF16
:1016200054E40E941F02DC01CB018F839887A987B5
:10163000BA876F81788589859A8520E030E040E817
:101640005FE30E94250488232CF481E090E09E83D0
:101650008D833FC06F81788589859A8520E03FEF33
:101660004FE757E40E94C50318164CF56B857C853F
:101670008D859E8520E030E040E251E40E941F020B
:10168000DC01CB01BC01CD010E944900DC01CB0192
:101690009E838D830FC088EC90E09C838B838B812D
:1016A0009C810197F1F79C838B838D819E810197AB
:1016B0009E838D838D819E81009769F714C06F8111
:1016C000788589859A850E944900DC01CB019E833B
:1016D0008D838D819E819A83898389819A810197E7
:1016E000F1F79A838983CA5ADF4F0FB6F894DEBFA9
:1016F0000FBECDBFCF91DF911F910F910895DF9362
:10170000CF93CDB7DEB7E1970FB6F894DEBF0FBE2B
:10171000CDBF89AB82E067E040E00E94261282E004
:1017200066E040E00E94261281E069A90E946313EE
:1017300082E065E041E00E94261280E090E0A8ECA3
:10174000B2E48DA79EA7AFA7B8AB6DA57EA58FA568
:1017500098A92BEA3AEA4AE250E40E941F02DC010F
:10176000CB0189A79AA7ABA7BCA769A57AA58BA52A
:101770009CA520E030E040E85FE30E942504882338
:101780001CF481E088A791C069A57AA58BA59CA5CA
:1017900020E030E04FE753E40E94C50318160CF038
:1017A0007BC06DA57EA58FA598A920E030E04AE713
:1017B00054E40E941903DC01CB018CA39DA3AEA3CA
:1017C000BFA36CA17DA18EA19FA120E030E04AEFD4
:1017D00054E40E941F02DC01CB0188A399A3AAA3B1
:1017E000BBA368A179A18AA19BA120E030E040E8D9
:1017F0005FE30E94250488232CF481E090E09F8F12
:101800008E8F3FC068A179A18AA19BA120E03FEF04
:101810004FE757E40E94C50318164CF56CA17DA153
:101820008EA19FA120E030E040E251E40E941F021F
:10183000DC01CB01BC01CD010E944900DC01CB01E0
:101840009F8F8E8F0FC088EC90E09D8F8C8F8C8D3A
:101850009D8D0197F1F79D8F8C8F8E8D9F8D0197B8
:101860009F8F8E8F8E8D9F8D009769F724C068A102
:1018700079A18AA19BA10E944900DC01CB019F8F25
:101880008E8F8E8D9F8D9B8F8A8F8A8D9B8D0197DA
:10189000F1F79B8F8A8F0FC069A57AA58BA59CA5B0
:1018A0000E944900DC01CB0188A788A5898F898D1A
:1018B0008A95F1F7898F82E065E040E00E94261268
:1018C00080913E05813009F0EEC089A9982F917072
:1018D00081E064E0492F0E94261289A98695982FFD
:1018E000917081E065E0492F0E94261289A98695B2
:1018F0008695982F917081E066E0492F0E9426120C
:1019000089A9869586958695982F917081E067E0E4
:10191000492F0E94261282E065E041E00E942612D3
:1019200080E090E0A8ECB2E48D8B9E8BAF8BB88FFB
:101930006D897E898F89988D2BEA3AEA4AE250E4D4
:101940000E941F02DC01CB01898B9A8BAB8BBC8B75
:1019500069897A898B899C8920E030E040E85FE3DF
:101960000E94250488231CF481E0888B91C069893A
:101970007A898B899C8920E030E04FE753E40E940C
:10198000C50318160CF07BC06D897E898F89988DF0
:1019900020E030E04AE754E40E941903DC01CB0167
:1019A0008C879D87AE87BF876C857D858E859F855B
:1019B00020E030E04AEF54E40E941F02DC01CB013A
:1019C00088879987AA87BB87688579858A859B855B
:1019D00020E030E040E85FE30E94250488232CF4F7
:1019E00081E090E09F838E833FC0688579858A85FA
:1019F0009B8520E03FEF4FE757E40E94C503181690
:101A00004CF56C857D858E859F8520E030E040E239
:101A100051E40E941F02DC01CB01BC01CD010E94F8
:101A20004900DC01CB019F838E830FC088EC90E0DE
:101A30009D838C838C819D810197F1F79D838C839D
:101A40008E819F8101979F838E838E819F810097D6
:101A500069F724C0688579858A859B850E9449003D
:101A6000DC01CB019F838E838E819F819B838A8340
:101A70008A819B810197F1F79B838A830FC06989D3
:101A80007A898B899C890E944900DC01CB01888B73
:101A90008889898389818A95F1F7898382E065E065
:101AA00040E00E942612E1960FB6F894DEBF0FBE0A
:101AB000CDBFCF91DF910895DF93CF93CDB7DEB740
:101AC00069970FB6F894DEBF0FBECDBF898F82E055
:101AD00067E041E00E94261282E066E040E00E945A
:101AE000261281E0698D0E94631382E065E041E087
:101AF0000E94261280E090E0A8ECB2E48D8B9E8BD1
:101B0000AF8BB88F6D897E898F89988D2BEA3AEAE1
:101B10004AE250E40E941F02DC01CB01898B9A8BC0
:101B2000AB8BBC8B69897A898B899C8920E030E0FA
:101B300040E85FE30E94250488231CF481E0888B41
:101B400091C069897A898B899C8920E030E04FE7D0
:101B500053E40E94C50318160CF07BC06D897E8982
:101B60008F89988D20E030E04AE754E40E94190301
:101B7000DC01CB018C879D87AE87BF876C857D8517
:101B80008E859F8520E030E04AEF54E40E941F02DA
:101B9000DC01CB0188879987AA87BB87688579850F
:101BA0008A859B8520E030E040E85FE30E942504C1
:101BB00088232CF481E090E09F838E833FC068856A
:101BC00079858A859B8520E03FEF4FE757E40E94A7
:101BD000C50318164CF56C857D858E859F8520E0A4
:101BE00030E040E251E40E941F02DC01CB01BC0165
:101BF000CD010E944900DC01CB019F838E830FC081
:101C000088EC90E09D838C838C819D810197F1F716
:101C10009D838C838E819F8101979F838E838E818C
:101C20009F81009769F724C0688579858A859B859F
:101C30000E944900DC01CB019F838E838E819F81AE
:101C40009B838A838A819B810197F1F79B838A8397
:101C50000FC069897A898B899C890E944900DC01BF
:101C6000CB01888B8889898389818A95F1F789835B
:101C700082E065E040E00E94261269960FB6F89473
:101C8000DEBF0FBECDBFCF91DF910895DF93CF931D
:101C900000D00F92CDB7DEB79B838A8319820EC026
:101CA0008981282F30E08A819B81FC01E20FF31F9C
:101CB00080810E945C0D89818F5F89838981282FB3
:101CC00030E08A819B81FC01E20FF31F8081882331
:101CD00039F70F900F900F90CF91DF910895DF9318
:101CE000CF9300D000D0CDB7DEB78B836C831A8240
:101CF0008B81882319F08B81813081F48C81803134
:101D000068F48B81882319F48C81898309C08B81C5
:101D1000813031F48C81805C898302C081E08A83C8
:101D200089818058898389810E947F0B8A810F90E5
:101D30000F900F900F90CF91DF910895DF93CF9385
:101D4000CDB7DEB727970FB6F894DEBF0FBECDBF75
:101D50009C838B836D834E832F838D81882F90E0AE
:101D6000880F991F880F991F880F991F8A838A816E
:101D700080648A838A810E947F0B19820EC08981C8
:101D8000282F30E08B819C81FC01E20FF31F8081C2
:101D90000E945C0D89818F5F89838981883078F307
:101DA0008E816F810E946F0E8D810E945C0D27963F
:101DB0000FB6F894DEBF0FBECDBFCF91DF9108956F
:101DC000DF93CF93CDB7DEB764970FB6F894DEBF3D
:101DD0000FBECDBF8C8B1B821A8219821DC08C89CD
:101DE0009AE0692F0E94AB27892F8B838A81282F45
:101DF00030E0CE010496FC01E20FF31F8B8180835B
:101E00008C899AE0692F0E94AB278C8B89818F5F28
:101E100089838A818F5F8A838C89882301F78981EE
:101E20008A83B6C08A81882F90E09C01215030407F
:101E3000CE010496FC01E20FF31F8081882321F478
:101E400080E30E945C0DA1C08A81882F90E09C01F4
:101E500021503040CE010496FC01E20FF31F808137
:101E6000813021F481E30E945C0D8FC08A81882F2C
:101E700090E09C0121503040CE010496FC01E20F1D
:101E8000F31F8081823021F482E30E945C0D7DC0CB
:101E90008A81882F90E09C0121503040CE01049629
:101EA000FC01E20FF31F8081833021F483E30E9461
:101EB0005C0D6BC08A81882F90E09C0121503040DE
:101EC000CE010496FC01E20FF31F8081843021F4DF
:101ED00084E30E945C0D59C08A81882F90E09C01A8
:101EE00021503040CE010496FC01E20FF31F8081A7
:101EF000853021F485E30E945C0D47C08A81882FDC
:101F000090E09C0121503040CE010496FC01E20F8C
:101F1000F31F8081863021F486E30E945C0D35C07A
:101F20008A81882F90E09C0121503040CE01049698
:101F3000FC01E20FF31F8081873021F487E30E94C8
:101F40005C0D23C08A81882F90E09C012150304095
:101F5000CE010496FC01E20FF31F8081883021F44A
:101F600088E30E945C0D11C08A81882F90E09C015B
:101F700021503040CE010496FC01E20FF31F808116
:101F8000893019F489E30E945C0D8A8181508A832B
:101F90008A81882309F046CF64960FB6F894DEBF95
:101FA0000FBECDBFCF91DF910895DF93CF93CDB713
:101FB000DEB72E970FB6F894DEBF0FBECDBF81E01F
:101FC0000E947F0B80E090E0A0E0B0E48B879C87CC
:101FD000AD87BE876B857C858D859E8520E030E052
:101FE0004AEF54E40E941F02DC01CB018F839887E3
:101FF000A987BA876F81788589859A8520E030E046
:1020000040E85FE30E94250488232CF481E090E0FF
:102010009E838D833FC06F81788589859A8520E076
:102020003FEF4FE757E40E94C50318164CF56B8548
:102030007C858D859E8520E030E040E251E40E9461
:102040001F02DC01CB01BC01CD010E944900DC0173
:10205000CB019E838D830FC088EC90E09C838B83A3
:102060008B819C810197F1F79C838B838D819E816D
:1020700001979E838D838D819E81009769F714C09F
:102080006F81788589859A850E944900DC01CB01A2
:102090009E838D838D819E819A83898389819A8194
:1020A0000197F1F79A8389832E960FB6F894DEBFD5
:1020B0000FBECDBFCF91DF910895DF93CF93CDB702
:1020C000DEB780E060E041E00E94A11080E067E0C0
:1020D00041E00E94A110CF91DF910895DF93CF934B
:1020E000CDB7DEB780E060E041E00E94261280E0DC
:1020F00067E040E00E942612CF91DF910895DF93C0
:10210000CF93CDB7DEB780E060E040E00E942612BA
:1021100080E067E041E00E942612CF91DF910895B0
:10212000DF93CF93CDB7DEB780E060E041E00E945F
:10213000261280E067E041E00E942612CF91DF91F5
:102140000895DF93CF93CDB7DEB728970FB6F894F5
:10215000DEBF0FBECDBF8A836B834C8319828A8119
:10216000883008F01FC18C81882309F08CC08A81D7
:10217000282F30E038872F838F8198858130910513
:1021800089F1EF81F885E230F10534F42F8138854B
:102190002115310569F074C08F81988582309105D1
:1021A000D9F1EF81F885E330F10509F44FC068C03B
:1021B0004AE350E0AAE3B0E0EAE3F0E08081682F70
:1021C0008B81282F30E081E090E0022E02C0880F42
:1021D000991F0A94E2F7809586238C938C91FA01DB
:1021E0008083E2C047E350E0A7E3B0E0E7E3F0E03C
:1021F0008081682F8B81282F30E081E090E0022ED3
:1022000002C0880F991F0A94E2F7809586238C9369
:102210008C91FA018083C8C044E350E0A4E3B0E0AD
:10222000E4E3F0E08081682F8B81282F30E081E0AB
:1022300090E0022E02C0880F991F0A94E2F7809561
:1022400086238C938C91FA018083AEC041E350E0E9
:10225000A1E3B0E0E1E3F0E08081682F8B81282FDB
:1022600030E081E090E0022E02C0880F991F0A94AE
:10227000E2F7809586238C938C91FA01808394C039
:1022800081E0898391C08C81813009F088C08A8186
:10229000282F30E03E832D838D819E8181309105F2
:1022A00081F1ED81FE81E230F10534F42D813E8132
:1022B0002115310569F070C08D819E8182309105B4
:1022C000C9F1ED81FE81E330F10509F44CC064C031
:1022D0004AE350E0AAE3B0E0EAE3F0E08081682F4F
:1022E0008B81282F30E081E090E0022E02C0880F21
:1022F000991F0A94E2F7862B8C938C91FA018083C4
:1023000053C047E350E0A7E3B0E0E7E3F0E08081AB
:10231000682F8B81282F30E081E090E0022E02C0F0
:10232000880F991F0A94E2F7862B8C938C91FA01FF
:1023300080833AC044E350E0A4E3B0E0E4E3F0E09B
:102340008081682F8B81282F30E081E090E0022E81
:1023500002C0880F991F0A94E2F7862B8C938C9108
:10236000FA01808321C041E350E0A1E3B0E0E1E362
:10237000F0E08081682F8B81282F30E081E090E0B1
:10238000022E02C0880F991F0A94E2F7862B8C93C5
:102390008C91FA01808308C081E0898305C081E0C7
:1023A000898302C081E08983898128960FB6F894D9
:1023B000DEBF0FBECDBFCF91DF910895DF93CF93E6
:1023C00000D000D00F92CDB7DEB78A836B8319821D
:1023D0008A81282F30E03D832C838C819D81813040
:1023E0009105D1F02C813D81223031052CF48C8176
:1023F0009D81009761F01FC02C813D812230310505
:1024000081F08C819D818330910581F014C0EAE3D5
:10241000F0E08B81808311C0E7E3F0E08B81808363
:102420000CC0E4E3F0E08B81808307C0E1E3F0E0DF
:102430008B81808302C081E0898389810F900F9016
:102440000F900F900F90CF91DF910895DF93CF936E
:10245000CDB7DEB728970FB6F894DEBF0FBECDBF5D
:102460008A836B834C8319828A81883008F01FC16C
:102470008C81882309F08CC08A81282F30E038872E
:102480002F838F8198858130910589F1EF81F885BF
:10249000E230F10534F42F8138852115310569F0DA
:1024A00074C08F81988582309105D9F1EF81F885CC
:1024B000E330F10509F44FC068C04BE350E0ABE3F3
:1024C000B0E0EBE3F0E08081682F8B81282F30E0D3
:1024D00081E090E0022E02C0880F991F0A94E2F773
:1024E000809586238C938C91FA018083E2C048E327
:1024F00050E0A8E3B0E0E8E3F0E08081682F8B8152
:10250000282F30E081E090E0022E02C0880F991F52
:102510000A94E2F7809586238C938C91FA0180834C
:10252000C8C045E350E0A5E3B0E0E5E3F0E080811A
:10253000682F8B81282F30E081E090E0022E02C0CE
:10254000880F991F0A94E2F7809586238C938C91CB
:10255000FA018083AEC042E350E0A2E3B0E0E2E3E0
:10256000F0E08081682F8B81282F30E081E090E0BF
:10257000022E02C0880F991F0A94E2F780958623E5
:102580008C938C91FA01808394C081E0898391C0FF
:102590008C81813009F088C08A81282F30E03E8309
:1025A0002D838D819E818130910581F1ED81FE81A8
:1025B000E230F10534F42D813E812115310569F0B9
:1025C00070C08D819E8182309105C9F1ED81FE81BF
:1025D000E330F10509F44CC064C04BE350E0ABE3D9
:1025E000B0E0EBE3F0E08081682F8B81282F30E0B2
:1025F00081E090E0022E02C0880F991F0A94E2F752
:10260000862B8C938C91FA01808353C048E350E071
:10261000A8E3B0E0E8E3F0E08081682F8B81282F09
:1026200030E081E090E0022E02C0880F991F0A94EA
:10263000E2F7862B8C938C91FA0180833AC045E3B4
:1026400050E0A5E3B0E0E5E3F0E08081682F8B8106
:10265000282F30E081E090E0022E02C0880F991F01
:102660000A94E2F7862B8C938C91FA01808321C027
:1026700042E350E0A2E3B0E0E2E3F0E08081682FC3
:102680008B81282F30E081E090E0022E02C0880F7D
:10269000991F0A94E2F7862B8C938C91FA01808320
:1026A00008C081E0898305C081E0898302C081E0A0
:1026B0008983898128960FB6F894DEBF0FBECDBFFF
:1026C000CF91DF910895DF93CF9300D000D00F9288
:1026D000CDB7DEB78A836B8319828A81282F30E0D9
:1026E0003D832C838C819D8181309105D1F02C819B
:1026F0003D81223031052CF48C819D81009761F061
:102700001FC02C813D812230310581F08C819D815B
:102710008330910581F014C0EBE3F0E08B8180837E
:1027200011C0E8E3F0E08B8180830CC0E5E3F0E0CA
:102730008B81808307C0E2E3F0E08B81808302C05D
:1027400081E0898389810F900F900F900F900F90F7
:10275000CF91DF910895DF93CF9300D000D000D0C8
:10276000CDB7DEB78B836C8319828B81282F30E045
:102770003E832D834D815E814130510541F18D8134
:102780009E818230910534F42D813E8121153105E1
:1027900061F053C04D815E814230510551F18D8110
:1027A0009E8183309105B9F148C0E9E3F0E0808172
:1027B000282F30E08C81882F90E0A90102C0559528
:1027C00047958A95E2F7CA0181708A8338C0E6E3AB
:1027D000F0E08081282F30E08C81882F90E0A901E3
:1027E00002C0559547958A95E2F7CA0181708A83A0
:1027F00026C0E3E3F0E08081282F30E08C81882F31
:1028000090E0A90102C0559547958A95E2F7CA0163
:1028100081708A8314C0E0E3F0E08081282F30E0EB
:102820008C81882F90E0A90102C0559547958A9523
:10283000E2F7CA0181708A8302C081E089838A81BC
:1028400026960FB6F894DEBF0FBECDBFCF91DF91B5
:102850000895DF93CF93CDB7DEB76E970FB6F89498
:10286000DEBF0FBECDBF8D8F6E8F8D8D6E8D41E023
:102870000E94261280E090E0AAE7B3E4898F9A8F45
:10288000AB8FBC8F698D7A8D8B8D9C8D20E030E075
:102890004AEF54E40E941F02DC01CB018D8B9E8B1A
:1028A000AF8BB88F6D897E898F89988D20E030E05D
:1028B00040E85FE30E94250488232CF481E090E047
:1028C0009C8B8B8B3FC06D897E898F89988D20E092
:1028D0003FEF4FE757E40E94C50318164CF5698D8A
:1028E0007A8D8B8D9C8D20E030E040E251E40E9497
:1028F0001F02DC01CB01BC01CD010E944900DC01BB
:10290000CB019C8B8B8B0FC088EC90E09A8B898BD2
:1029100089899A890197F1F79A8B898B8B899C8990
:1029200001979C8B8B8B8B899C89009769F714C0CE
:102930006D897E898F89988D0E944900DC01CB01C9
:102940009C8B8B8B8B899C89988B8F878F859889A3
:102950000197F1F7988B8F878D8D6E8D40E00E94E7
:10296000261280E090E0AAE7B3E48B879C87AD87CE
:10297000BE876B857C858D859E8520E030E04AEFA3
:1029800054E40E941F02DC01CB018F839887A98742
:10299000BA876F81788589859A8520E030E040E8A4
:1029A0005FE30E94250488232CF481E090E09E835D
:1029B0008D833FC06F81788589859A8520E03FEFC0
:1029C0004FE757E40E94C50318164CF56B857C85CC
:1029D0008D859E8520E030E040E251E40E941F0298
:1029E000DC01CB01BC01CD010E944900DC01CB011F
:1029F0009E838D830FC088EC90E09C838B838B81BA
:102A00009C810197F1F79C838B838D819E81019737
:102A10009E838D838D819E81009769F714C06F819D
:102A2000788589859A850E944900DC01CB019E83C7
:102A30008D838D819E819A83898389819A81019773
:102A4000F1F79A8389836E960FB6F894DEBF0FBEB6
:102A5000CDBFCF91DF910895DF93CF9300D0CDB755
:102A6000DEB79A8389832FE430E0AFE4B0E0EFE48F
:102A7000F0E080818E7F8C938C91F90180832FE42C
:102A800030E0AFE4B0E0EFE4F0E080818D7F8C9344
:102A90008C91F90180832EE430E0AEE4B0E0EEE406
:102AA000F0E0808188608C938C91F90180832EE422
:102AB00030E0AEE4B0E0EEE4F0E080818F7E8C9315
:102AC0008C91F90180832FE430E0AFE4B0E0EFE4D3
:102AD000F0E080818F7B8C938C91F90180832FE4CF
:102AE00030E0AFE4B0E0EFE4F0E080818F778C93EA
:102AF0008C91F901808389819A81009709F18981FC
:102B00009A81F0E28C369F07D8F4EAE4F0E08981FC
:102B10009A819C0140E050E0DA01C901880F991FB9
:102B2000AA1FBB1F880F991FAA1FBB1F880F991FC1
:102B3000AA1FBB1F821B930BA40BB50B9183808331
:102B4000AEE4B0E0EEE4F0E08081887F8C93AEE408
:102B5000B0E0EEE4F0E0808185608C93E8E5F0E0A1
:102B6000808182958F70882F90E08170907000979F
:102B7000A9F328E530E0A8E5B0E0E8E5F0E08081E1
:102B800080618C938C91F90180830F900F90CF918D
:102B9000DF9108950F931F93DF93CF9300D000D060
:102BA000CDB7DEB79A8389837C836B832FE430E0D3
:102BB000AFE4B0E0EFE4F0E080818F7B8C938C9108
:102BC000F90180832FE430E0AFE4B0E0EFE4F0E01F
:102BD000808180688C938C91F90180832FE430E0B0
:102BE000AFE4B0E0EFE4F0E080818E7F8C938C91D5
:102BF000F90180832FE430E0AFE4B0E0EFE4F0E0EF
:102C000080818D7F8C938C91F90180832EE430E05C
:102C1000AEE4B0E0EEE4F0E0808188608C938C91CB
:102C2000F90180832EE430E0AEE4B0E0EEE4F0E0C1
:102C300080818F7E8C938C91F9018083AEE4B0E02B
:102C4000EEE4F0E08081887F8C93AEE4B0E0EEE4C7
:102C5000F0E0808185608C9389819A81009711F1E1
:102C600089819A81F0E28C369F07E0F40AE410E053
:102C700089819A81CC01A0E0B0E02DE730E040E00E
:102C800050E0BC01CD010E948C27DC01CB0168948F
:102C900013F8B695A795979587951694D1F7F801EF
:102CA000918380830E94191829E530E0A9E5B0E0FE
:102CB000E9E5F0E0808180618C938C91F90180835B
:102CC0008B819C819093400580933F050F900F90DE
:102CD0000F900F90CF91DF911F910F9108951F9248
:102CE0000F920FB60F9211242F933F934F935F9340
:102CF0006F937F938F939F93AF93BF93EF93FF93C4
:102D0000DF93CF93CDB7DEB780913F05909140051B
:102D1000009729F0E0913F05F09140050995CF918A
:102D2000DF91FF91EF91BF91AF919F918F917F9133
:102D30006F915F914F913F912F910F900FBE0F9028
:102D40001F901895DF93CF93CDB7DEB762970FB67C
:102D5000F894DEBF0FBECDBF998B888B6A8B1F8620
:102D600088899989892F992784658F870E940E1AEF
:102D70008F850E94761A88890E94181B8A890E9472
:102D8000181B0E94121C80E090E0A0EAB1E48B873F
:102D90009C87AD87BE876B857C858D859E8520E071
:102DA00030E04AEF54E40E941F02DC01CB018F8324
:102DB0009887A987BA876F81788589859A8520E069
:102DC00030E040E85FE30E94250488232CF481E092
:102DD00090E09E838D833FC06F81788589859A8539
:102DE00020E03FEF4FE757E40E94C50318164CF56B
:102DF0006B857C858D859E8520E030E040E251E446
:102E00000E941F02DC01CB01BC01CD010E944900E0
:102E1000DC01CB019E838D830FC088EC90E09C8306
:102E20008B838B819C810197F1F79C838B838D81B0
:102E30009E8101979E838D838D819E81009769F786
:102E400014C06F81788589859A850E944900DC01CC
:102E5000CB019E838D838D819E819A838983898115
:102E60009A810197F1F79A83898362960FB6F89455
:102E7000DEBF0FBECDBFCF91DF910895DF93CF931B
:102E8000CDB7DEB764970FB6F894DEBF0FBECDBFE7
:102E9000998B888B7B8B6A8B4C8B1F868889998951
:102EA000892F992784658F870E940E1A8F850E942B
:102EB000761A88890E94181B0E94421A8F850E94E8
:102EC000C71A8A899B896C890E949C1B0E94121CCC
:102ED00080E090E0A0EAB1E48B879C87AD87BE8755
:102EE0006B857C858D859E8520E030E04AEF54E43B
:102EF0000E941F02DC01CB018F839887A987BA87C4
:102F00006F81788589859A8520E030E040E85FE32D
:102F10000E94250488232CF481E090E09E838D8319
:102F20003FC06F81788589859A8520E03FEF4FE724
:102F300057E40E94C50318164CF56B857C858D857A
:102F40009E8520E030E040E251E40E941F02DC0157
:102F5000CB01BC01CD010E944900DC01CB019E8365
:102F60008D830FC088EC90E09C838B838B819C8148
:102F70000197F1F79C838B838D819E8101979E83BE
:102F80008D838D819E81009769F714C06F8178854C
:102F900089859A850E944900DC01CB019E838D833F
:102FA0008D819E819A83898389819A810197F1F726
:102FB0009A83898364960FB6F894DEBF0FBECDBFA7
:102FC000CF91DF910895DF93CF9300D000D00F927F
:102FD000CDB7DEB79B838A837D836C83198216C04D
:102FE0008981282F30E08C819D81FC01E20FF31F45
:102FF00020818A819B81622F0E94A21689818F5F26
:1030000089838A819B8101969B838A838981282F6A
:1030100030E08C819D81FC01E20FF31F80818823C9
:10302000F9F60F900F900F900F900F90CF91DF91C6
:103030000895DF93CF93CDB7DEB72FE530E0AFE54E
:10304000B0E0EFE5F0E0808180688C938C91F9012D
:103050008083CF91DF910895DF93CF93CDB7DEB713
:103060002FE530E0AFE5B0E0EFE5F0E080818F776D
:103070008C938C91F9018083CF91DF910895DF9338
:10308000CF9300D0CDB7DEB789836A8389816A8107
:1030900041E00E94A1100F900F90CF91DF91089511
:1030A000DF93CF9300D0CDB7DEB789836A83898160
:1030B0006A8141E00E9426120F900F90CF91DF911C
:1030C0000895DF93CF9300D0CDB7DEB789836A83AD
:1030D00089816A8140E00E9426120F900F90CF9163
:1030E000DF910895DF93CF9300D0CDB7DEB789830A
:1030F0006A8389816A810E9429140F900F90CF9171
:10310000DF910895DF93CF9300D00F92CDB7DEB754
:1031100089837B836A8389818130C9F42FE430E01D
:10312000AFE4B0E0EFE4F0E080818F7B8C938C9192
:10313000F90180832FE430E0AFE4B0E0EFE4F0E0A9
:10314000808180688C938C91F90180831BC0898178
:103150008230C1F42FE430E0AFE4B0E0EFE4F0E01F
:1031600080818F7E8C938C91F90180832FE430E0F5
:10317000AFE4B0E0EFE4F0E0808180628C938C916A
:10318000F90180832FE430E0AFE4B0E0EFE4F0E059
:1031900080818E7F8C938C91F90180832FE430E0C5
:1031A000AFE4B0E0EFE4F0E0808182608C938C913A
:1031B000F90180832EE430E0AEE4B0E0EEE4F0E02C
:1031C000808188608C938C91F90180832EE430E0BB
:1031D000AEE4B0E0EEE4F0E0808180618C938C910D
:1031E000F9018083E6E4F0E08A819B81918380830A
:1031F000AEE4B0E0EEE4F0E08081887F8C93AEE452
:10320000B0E0EEE4F0E0808182608C930F900F904C
:103210000F90CF91DF910895CF92DF92EF92FF92BE
:103220000F931F93DF93CF9300D00F92CDB7DEB7EC
:1032300089837B836A830F2EFAE4CF2EDD24F02D61
:103240008981E82EFF2400E010E08A819B819C01A7
:1032500040E050E0C801B7010E948C27DC01CB019F
:1032600024E630E040E050E0BC01CD010E94CB27D5
:10327000DA01C901F601918380830F900F900F90BE
:10328000CF91DF911F910F91FF90EF90DF90CF9042
:103290000895EF92FF920F931F93DF93CF9300D087
:1032A00000D00F92CDB7DEB79B838A837D836C837A
:1032B0008A819B81CC01A0E0B0E028EC30E040E0C6
:1032C00050E0BC01CD010E948C27DC01CB0124EB36
:1032D00030E040E050E0BC01CD010E94CB27DA0194
:1032E000C9017C018D018C819D819C0140E050E0F1
:1032F000C801B7010E948C27DC01CB0189830AE455
:1033000010E08981882F90E0A0E0B0E02AE030E072
:1033100040E050E0BC01CD010E948C27DC01CB01D4
:1033200082519D4FF801918380830F900F900F90F1
:103330000F900F90CF91DF911F910F91FF90EF9021
:103340000895DF93CF930F92CDB7DEB7898389813C
:10335000882329F0E2E2F0E08981880F808326E566
:1033600030E0A6E5B0E0E6E5F0E080818F7B8C936D
:103370008C91F901808321E230E0A1E2B0E0E1E24A
:10338000F0E080818E7F8C938C91F901808321E223
:1033900030E0A1E2B0E0E1E2F0E080818D7F8C934B
:1033A0008C91F9018083E0E2F0E082E0808326E501
:1033B00030E0A6E5B0E0E6E5F0E0808184608C9343
:1033C0008C91F90180830F90CF91DF910895DF9365
:1033D000CF930F92CDB7DEB78983E2E2F0E0898127
:1033E000880F808326E530E0A6E5B0E0E6E5F0E072
:1033F000808180648C938C91F901808326E530E094
:10340000A6E5B0E0E6E5F0E0808184608C938C91E5
:10341000F90180830F90CF91DF910895DF93CF93CF
:103420000F92CDB7DEB7198226E530E0A6E5B0E011
:10343000E6E5F0E0808180628C938C91F9018083D5
:1034400026E530E0A6E5B0E0E6E5F0E080818068C2
:103450008C938C91F9018083E6E5F0E080818823EC
:10346000DCF7E1E2F0E08081882F90E0887F9070C7
:103470008830910511F081E0898389810F90CF9187
:10348000DF910895DF93CF930F92CDB7DEB7198206
:1034900026E530E0A6E5B0E0E6E5F0E08081806278
:1034A0008C938C91F901808326E530E0A6E5B0E0AD
:1034B000E6E5F0E0808180688C938C91F90180834F
:1034C000E6E5F0E080818823DCF7E1E2F0E080814E
:1034D000882F90E0887F90708031910511F082E014
:1034E000898389810F90CF91DF910895DF93CF93E6
:1034F00000D0CDB7DEB78A831982E3E2F0E08A819B
:10350000880F808323E230E0A3E2B0E0E3E2F0E062
:1035100080818E7F8C938C91F901808326E530E049
:10352000A6E5B0E0E6E5F0E080818F7D8C938C919C
:10353000F901808326E530E0A6E5B0E0E6E5F0E0BD
:10354000808180688C938C91F9018083E6E5F0E0BE
:1035500080818823DCF7E1E2F0E08081882F90E031
:10356000887F90708831910561F0E1E2F0E0808120
:10357000882F90E0887F90708032910511F083E071
:10358000898389810F900F90CF91DF910895DF9308
:10359000CF9300D0CDB7DEB78A831982E3E2F0E0A3
:1035A0008A81880F808323E230E0A3E2B0E0E3E287
:1035B000F0E0808181608C938C91F901808326E515
:1035C00030E0A6E5B0E0E6E5F0E080818F7D8C9309
:1035D0008C91F901808326E530E0A6E5B0E0E6E5D0
:1035E000F0E0808180688C938C91F9018083E6E51E
:1035F000F0E080818823DCF7E1E2F0E08081882F31
:1036000090E0887F90708034910561F0E1E2F0E015
:103610008081882F90E0887F90708834910511F028
:1036200084E0898389810F900F90CF91DF91089575
:10363000DF93CF9300D0CDB7DEB78A831982E3E260
:10364000F0E08A81808326E530E0A6E5B0E0E6E59B
:10365000F0E080818F7D8C938C91F901808326E549
:1036600030E0A6E5B0E0E6E5F0E0808180688C938C
:103670008C91F9018083E6E5F0E080818823DCF716
:10368000E1E2F0E08081882F90E0887F90708832BE
:10369000910561F0E1E2F0E08081882F90E0887F81
:1036A00090708033910511F085E0898389810F90B6
:1036B0000F90CF91DF910895DF93CF9300D00F92B9
:1036C000CDB7DEB79B838A83198226E530E0A6E575
:1036D000B0E0E6E5F0E0808180648C938C91F901A4
:1036E000808326E530E0A6E5B0E0E6E5F0E0808105
:1036F00080688C938C91F9018083E6E5F0E080810D
:103700008823DCF7E1E2F0E08081882F90E0887F79
:1037100090708035910519F086E0898306C0E3E258
:10372000F0E08081EA81FB81808389810F900F9096
:103730000F90CF91DF910895DF93CF9300D000D009
:103740000F92CDB7DEB79C838B836D831A8226E5FB
:1037500030E0A6E5B0E0E6E5F0E0808180648C939F
:103760008C91F9018083198243C026E530E0A6E5FB
:10377000B0E0E6E5F0E0808180688C938C91F901FF
:103780008083E6E5F0E080818823DCF7E1E2F0E089
:103790008081882F90E0887F90708035910519F0A6
:1037A00086E08A830CC08981282F30E08B819C8140
:1037B000DC01A20FB31FE3E2F0E080818C938981EA
:1037C000282F30E08D81882F90E001972817390746
:1037D00061F426E530E0A6E5B0E0E6E5F0E08081C2
:1037E0008F7B8C938C91F901808389818F5F898392
:1037F00099818D81891708F0B8CF8981882F90E051
:103800009C01225030408B819C81FC01E20FF31F10
:1038100010828A810F900F900F900F900F90CF9190
:10382000DF910895DF93CF93CDB7DEB726E530E083
:10383000A6E5B0E0E6E5F0E0808180618C938C91B4
:10384000F901808326E530E0A6E5B0E0E6E5F0E0AA
:10385000808180688C938C91F9018083CF91DF9176
:103860000895DF93CF9300D0CDB7DEB79A838983D5
:1038700023E530E0A3E5B0E0E3E5F0E08081886097
:103880008C938C91F901808323E530E0A3E5B0E0CF
:10389000E3E5F0E080818F7B8C938C91F90180834C
:1038A00023E530E0A3E5B0E0E3E5F0E080818F7E42
:1038B0008C938C91F901808323E530E0A3E5B0E09F
:1038C000E3E5F0E080818F7D8C938C91F90180831A
:1038D000ECE5F0E08EE4808329E530E0A9E5B0E096
:1038E000E9E5F0E0808182608C938C91F90180831E
:1038F0002FE530E0AFE5B0E0EFE5F0E080818068F3
:103900008C938C91F901808389819A81009731F0A1
:1039100089819A819093420580934105A3E5B0E0A7
:10392000E3E5F0E08081887F8C93A3E5B0E0E3E5F8
:10393000F0E0808184608C930F900F90CF91DF91A5
:103940000895DF93CF93CDB7DEB723E530E0A3E54D
:10395000B0E0E3E5F0E0808188608C938C91F90120
:10396000808323E530E0A3E5B0E0E3E5F0E080818B
:1039700080648C938C91F901808323E530E0A3E58A
:10398000B0E0E3E5F0E080818F7E8C938C91F901CB
:10399000808323E530E0A3E5B0E0E3E5F0E080815B
:1039A00080628C938C91F9018083A3E5B0E0E3E51C
:1039B000F0E08081887F8C93A3E5B0E0E3E5F0E060
:1039C000808182608C93CF91DF910895DF93CF93B4
:1039D0000F92CDB7DEB78983ECE5F0E08981808373
:1039E0000F90CF91DF910895DF93CF9300D00F9286
:1039F000CDB7DEB79A8389836B8323E530E0A3E5F7
:103A0000B0E0E3E5F0E08081877F8C938C91F90151
:103A1000808323E530E0A3E5B0E0E3E5F0E08081DA
:103A20008F7B8C938C91F9018083E2E5F0E08B81B0
:103A3000808329E530E0A9E5B0E0E9E5F0E08081A8
:103A400082608C938C91F90180830E94191889817E
:103A50009A81009731F089819A81909342058093F1
:103A60004105A3E5B0E0E3E5F0E08081887F8C9339
:103A7000A3E5B0E0E3E5F0E0808184608C930F90F3
:103A80000F900F90CF91DF9108951F920F920FB674
:103A90000F9211242F933F934F935F936F937F93D4
:103AA0008F939F93AF93BF93EF93FF93DF93CF9346
:103AB000CDB7DEB78091410590914205009729F07E
:103AC000E0914105F09142050995CF91DF91FF9179
:103AD000EF91BF91AF919F918F917F916F915F9186
:103AE0004F913F912F910F900FBE0F901F901895FF
:103AF000DF93CF93CDB7DEB72FE430E0AFE4B0E093
:103B0000EFE4F0E080818F7B8C938C91F9018083CE
:103B10002FE430E0AFE4B0E0EFE4F0E080818068D3
:103B20008C938C91F90180832FE430E0AFE4B0E016
:103B3000EFE4F0E080818E7F8C938C91F90180839B
:103B40002FE430E0AFE4B0E0EFE4F0E080818260A9
:103B50008C938C91F90180832EE430E0AEE4B0E0E8
:103B6000EEE4F0E0808188608C938C91F901808391
:103B70002EE430E0AEE4B0E0EEE4F0E0808180617D
:103B80008C938C91F9018083E6E4F0E080E29EE47E
:103B9000918380832EE430E0AEE4B0E0EEE4F0E028
:103BA00080818E7F8C938C91F90180832EE430E0AC
:103BB000AEE4B0E0EEE4F0E0808182608C938C9122
:103BC000F90180832EE430E0AEE4B0E0EEE4F0E012
:103BD00080818B7F8C938C91F9018083CF91DF91D1
:103BE0000895DF93CF9300D0CDB7DEB79A83898352
:103BF00089819A8123E0883E920730F489819A81F5
:103C000027E0813D920730F4EAE4F0E089819A816F
:103C1000918380830F900F90CF91DF910895DF9370
:103C2000CF93CDB7DEB72FE430E0AFE4B0E0EFE400
:103C3000F0E080818E7F8C938C91F90180832FE45A
:103C400030E0AFE4B0E0EFE4F0E080818D7F8C9372
:103C50008C91F90180832EE430E0AEE4B0E0EEE434
:103C6000F0E08081877F8C938C91F90180832EE432
:103C700030E0AEE4B0E0EEE4F0E080818F7E8C9343
:103C80008C91F90180832FE430E0AFE4B0E0EFE401
:103C9000F0E080818F7B8C938C91F90180832FE4FD
:103CA00030E0AFE4B0E0EFE4F0E080818F778C9318
:103CB0008C91F9018083A3E5B0E0E3E5F0E0808139
:103CC000887F8C93A3E5B0E0E3E5F0E0808182603B
:103CD0008C932EE430E0AEE4B0E0EEE4F0E08081DE
:103CE00080648C938C91F901808329E530E0A9E50B
:103CF000B0E0E9E5F0E0808180628C938C91F9017D
:103D00008083CF91DF910895DF93CF93CDB7DEB756
:103D1000E6E4F0E080819181CF91DF910895DF9317
:103D2000CF930F92CDB7DEB789838981813069F453
:103D30002EE430E0AEE4B0E0EEE4F0E080818064B8
:103D40008C938C91F90180830FC08981823061F45A
:103D50002EE430E0AEE4B0E0EEE4F0E080818F7B72
:103D60008C938C91F90180830F90CF91DF9108950E
:103D7000DF93CF9300D0CDB7DEB79A838983898153
:103D80009A81009731F089819A81909344058093BC
:103D900043050F900F90CF91DF9108951F920F92DE
:103DA0000FB60F9211242F933F934F935F936F930E
:103DB0007F938F939F93AF93BF93EF93FF93DF9383
:103DC000CF93CDB7DEB7809143059091440500971E
:103DD00029F0E0914305F09144050995CF91DF91D9
:103DE000FF91EF91BF91AF919F918F917F916F91D3
:103DF0005F914F913F912F910F900FBE0F901F90A9
:103E00001895DF93CF93CDB7DEB7E9E2F0E083E317
:103E10008083EAE2F0E088E18083E0E4F0E086E895
:103E20008083CF91DF910895DF93CF930F92CDB729
:103E3000DEB78983EBE2F0E08081882F90E080722A
:103E400090700097B9F3ECE2F0E089818083EBE2B7
:103E5000F0E08081882F90E0807490700097B9F333
:103E60002BE230E0ABE2B0E0EBE2F0E08081806496
:103E70008C938C91F90180830F90CF91DF910895FD
:103E8000DF93CF93CDB7DEB7EBE2F0E080818823FC
:103E9000DCF7ECE2F0E08081CF91DF910895DF93D1
:103EA000CF9300D000D0CDB7DEB79A8389837C83CF
:103EB0006B830E94191889819A819093460580939B
:103EC00045058B819C8190934805809347052AE2A4
:103ED00030E0AAE2B0E0EAE2F0E0808180688C9312
:103EE0008C91F90180830F900F900F900F90CF91DC
:103EF000DF910895DF93CF9300D00F92CDB7DEB757
:103F00009B838A830EC08981282F30E08A819B8120
:103F1000FC01E20FF31F80810E94141F89818F5FD3
:103F200089838981282F30E08A819B81FC01E20FFF
:103F3000F31F8081882339F70F900F900F90CF9156
:103F4000DF9108950F931F93DF93CF9300D00F92CB
:103F5000CDB7DEB79B838A8319828981282F30E011
:103F60008A819B818C01020F131F0E94401FF80160
:103F700080830FC089818F5F89838981282F30E0FA
:103F80008A819B818C01020F131F0E94401FF80140
:103F900080838981282F30E08A819B81FC01E20F98
:103FA000F31F8081833231F78981282F30E08A81A5
:103FB0009B81FC01E20FF31F10820F900F900F9076
:103FC000CF91DF911F910F9108951F920F920FB61D
:103FD0000F9211242F933F934F935F936F937F938F
:103FE0008F939F93AF93BF93EF93FF93DF93CF9301
:103FF000CDB7DEB7A0914505B0914605ECE2F0E003
:1040000080818C938091470590914805009729F015
:10401000E0914705F09148050995CF91DF91FF9117
:10402000EF91BF91AF919F918F917F916F915F9130
:104030004F913F912F910F900FBE0F901F901895A9
:10404000DF93CF93CDB7DEB7E3970FB6F894DEBF1B
:104050000FBECDBF1F8A188E1E8A1D8A1C8A1A8A1F
:10406000198A188A80E061E00E943F1880E062E0CF
:104070000E943F180E943C0880E063E00E946F0E9F
:1040800080E690E00E94460E81E063E00E946F0EA1
:104090008BE690E00E94460E80E00E94A11983E02A
:1040A00065E041E00E94A11080E060E040E00E94F5
:1040B000A11083E060E040E00E94A11083E061E095
:1040C00041E00E94A1100E94011F26E730E08FE02E
:1040D00090E0B9010E94582520E335E080E090E0AF
:1040E000B9010E94312525E335E080E090E0B90177
:1040F0000E9458252BE235E081E990E0B90144E0C7
:104100000E943E1720E335E080E090E0B90144E0F2
:104110000E943E1725E335E085E090E0B90144E0D8
:104120000E943E1727E635E08AE090E0B90144E0BE
:104130000E943E1728E535E08FE090E0B90144E0A9
:104140000E943E1723E535E084E190E0B90144E0A8
:104150000E943E172EE435E089E190E0B90144E089
:104160000E943E1729E435E08EE190E0B90144E079
:104170000E943E1722E635E083E290E0B90144E078
:104180000E943E172DE535E088E290E0B90144E059
:104190000E943E172CE635E08DE290E0B90144E044
:1041A0000E943E178AE790E00E947A1FCE01479650
:1041B0000E94A21F8F89813309F046C01E8A3FC02A
:1041C0000E94D50F80E060E00E946F0E81EB90E0CE
:1041D0000E94460E8FEB90E00E947A1FCE01499616
:1041E0000E94A21FCE0149962BE235E0B9010E9440
:1041F0005E248D8B8D89813089F48BED90E00E9457
:104200007A1F0E94D50F80E060E00E946F0E8AEE58
:1042100090E00E94460E8BE08D8B45C184EF90E0CC
:104220000E947A1F0E94D50F80E060E00E946F0E0E
:1042300082E191E00E94460E8E898F5F8E8B8E897F
:10424000833008F4BDCF2FC18F89823309F01DC19F
:104250001F8668C08EE191E00E947A1FCE014D96C4
:104260000E94A21F0E94D50F80E060E00E946F0EA6
:1042700080E491E00E94460E81E060E00E946F0EB3
:10428000CE014D960E94460ECE014D9620E335E0BC
:10429000B9010E945E24882319F081E08C8B46C00E
:1042A000CE014D9627E635E0B9010E945E248823B1
:1042B00019F082E08C8B3AC0CE014D9623E535E0B3
:1042C000B9010E945E24882319F083E08C8B2EC0F4
:1042D000CE014D9629E435E0B9010E945E24882381
:1042E00019F084E08C8B22C0CE014D962DE535E08F
:1042F000B9010E945E24882319F085E08C8B16C0DA
:104300001C8A8F858F5F8F878FE491E00E947A1FD0
:104310000E94D50F80E060E00E946F0E8AE691E077
:104320000E94460E8F85833008F494CF8C89282F05
:1043300030E03BAB2AAB8AA99BA98230910509F4F6
:1043400048C02AA93BA92330310554F48AA99BA966
:104350000097C9F02AA93BA92130310519F1A3C062
:104360008AA99BA98430910509F461C02AA93BA9B7
:10437000243031050CF444C08AA99BA985309105ED
:1043800009F46CC090C086E791E00E947A1F0E94F9
:10439000D50F80E060E00E946F0E84E991E00E94FA
:1043A000460E81C080EA91E00E947A1F80E066E0BC
:1043B0000E946F0E0E94D50F8BEA91E00E94460E7C
:1043C00025E335E0CE018196B9010E94F7248D8B5B
:1043D0006AC080EA91E00E947A1F80E066E00E9455
:1043E0006F0E0E94D50F8BEA91E00E94460E28E5E1
:1043F00035E0CE018196B9010E94F7248D8B53C020
:1044000080EA91E00E947A1F80E066E00E946F0ED1
:104410000E94D50F8BEA91E00E94460E2EE435E013
:10442000CE018196B9010E94F7248D8B3CC080EAB1
:1044300091E00E947A1F80E066E00E946F0E0E9469
:10444000D50F8BEA91E00E94460E22E635E0CE01C0
:104450008196B9010E94F7248D8B25C080EA91E0F6
:104460000E947A1F80E066E00E946F0E0E94D50FC6
:104470008BEA91E00E94460E2CE635E0CE01819653
:10448000B9010E94F7248D8B0EC081EB91E00E9450
:104490007A1F0E94D50F80E060E00E946F0E85ECCD
:1044A00091E00E94460E8D898B3009F0D7C18F892B
:1044B000813309F0EBC080E063E00E946F0E0E9440
:1044C000D50F83ED91E00E94460E8EED91E00E94A3
:1044D0007A1FCE0148960E94A21F81E060E00E94F0
:1044E0006F0E888D882F90E00E94460E888D813354
:1044F00009F073C08FE392E00E947A1FCE01859687
:104500000E94A21F0E94D50F80E060E00E946F0E03
:1045100083ED91E00E94460E81E060E00E946F0E04
:104520008DA1882F90E00E94460ECE0185960E94B4
:104530007F258B8B8B89882309F4B9CF8B898630B3
:1045400008F0B5CF84E692E00E947A1FCE018696ED
:104550000E94A21F81E060E00E946F0ECE0186964D
:104560000E94460E83E892E00E947A1FCE018B964D
:104570000E94A21F81E060E00E946F0ECE018B9628
:104580000E94460E8B89882F90E09E012A5D3F4F46
:10459000B9010E94312587EA92E00E947A1F81E0EA
:1045A00060E00E946F0E82EC92E00E94460E8B89C2
:1045B000882F90E09E01255D3F4FB9010E9458254C
:1045C00088EC92E00E947A1F81E069E00E946F0E01
:1045D00081EE92E00E94460E6ACF888D823399F573
:1045E00085EE92E00E947A1FCE0185960E94A21F5E
:1045F000CE0185960E947F258B8B81E060E00E9432
:104600006F0E8DA1882F90E00E94460E8B89882F17
:1046100090E024E133E0B9010E9431258B89882F95
:1046200090E028E133E0B9010E9458258CE193E045
:104630000E947A1F81E060E00E946F0E83E493E0A5
:104640000E94460E34CF888D833389F489E493E049
:104650000E947A1F0E94D50F81E060E00E946F0ED9
:1046600080E693E00E94460E19AA18AAFDC088E6CB
:1046700093E00E947A1F0E94D50F80E060E00E94C4
:104680006F0E85EC91E00E94460E11CF8F89823328
:1046900009F00DCF81E08A8B81E893E00E947A1FB8
:1046A00081E061E00E946F0E0E94D50F83E993E0E4
:1046B0000E94460E8AE590E060EA7FE00E94491978
:1046C00081E060EA7FE00E94821880E061E00E9461
:1046D000501884EF91E06AEF0E94D1258CEB92E0B4
:1046E0006AEF0E94D12580E293E06AEF0E94D12513
:1046F00088EE93E06AEF0E94D12587E00E941707B9
:10470000A8C080E00E949E07882F90E0998B888B3C
:1047100048895989CA01880F991F9C01220F331FAC
:10472000220F331F220F331F820F931F840F951FF9
:104730002AE030E0B9010E94B727CB01998B888B22
:10474000888999898D31910530F080E062E041E0FF
:104750000E94261205C080E062E040E00E9426121E
:1047600081E060E00E946F0E88890E94E00E80E088
:1047700090E0A8ECB2E48B879C87AD87BE876B8501
:104780007C858D859E8520E030E04AEF54E40E94D0
:104790001F02DC01CB018F839887A987BA876F81BD
:1047A000788589859A8520E030E040E85FE30E94C3
:1047B000250488232CF481E090E09E838D833FC004
:1047C0006F81788589859A8520E03FEF4FE757E430
:1047D0000E94C50318164CF56B857C858D859E85DA
:1047E00020E030E040E251E40E941F02DC01CB01F6
:1047F000BC01CD010E944900DC01CB019E838D8369
:104800000FC088EC90E09C838B838B819C81019707
:10481000F1F79C838B838D819E8101979E838D838D
:104820008D819E81009769F714C06F817885898595
:104830009A850E944900DC01CB019E838D838D8186
:104840009E819A83898389819A810197F1F79A835E
:1048500089838A89813009F454CF29CE80EA93E094
:104860000E947A1F19AA18AA88A999A9E3960FB6D7
:10487000F894DEBF0FBECDBFCF91DF910895DF93D7
:10488000CF9300D00F92CDB7DEB79B838A83198276
:1048900003C089818F5F89838981282F30E08A81D5
:1048A0009B81FC01E20FF31F8081882391F78981AE
:1048B0000F900F900F90CF91DF9108951F93DF938A
:1048C000CF9300D000D000D0CDB7DEB79B838A83D2
:1048D0007D836C838A819B810E943F24182F8C8169
:1048E0009D810E943F24181711F01E8228C0198252
:1048F00019C08981282F30E08A819B81FC01E20F59
:10490000F31F40818981282F30E08C819D81FC013B
:10491000E20FF31F8081481711F01E8210C08981B9
:104920008F5F89838981282F30E08A819B81FC01F8
:10493000E20FF31F80818823E1F681E08E838E8170
:1049400026960FB6F894DEBF0FBECDBFCF91DF9194
:104950001F910895DF93CF9300D000D0CDB7DEB77D
:104960009B838A83198233C08EEB93E00E947A1F67
:104970008A819B810E94A21F80E395E02A813B816E
:10498000B9010E945E24882319F081E08C8327C03E
:1049900087E695E02A813B81B9010E945E24882345
:1049A00019F082E08C831BC083E595E02A813B816E
:1049B000B9010E945E24882319F083E08C830FC024
:1049C00089818F5F898388ED93E00E947A1F8981B6
:1049D000833050F286E791E00E947A1F1C828C811E
:1049E0000F900F900F900F90CF91DF910895DF936C
:1049F000CF9300D000D000D0CDB7DEB79B838A83A1
:104A00007D836C8319821BC081EF93E00E947A1F23
:104A10008A819B810E94A21F2C813D818A819B817A
:104A2000B9010E945E24882319F08BE08E830FC0A9
:104A300089818F5F89838AE094E00E947A1F89814F
:104A4000833010F380EA93E00E947A1F1E828E81E9
:104A500026960FB6F894DEBF0FBECDBFCF91DF9183
:104A60000895DF93CF9300D000D0CDB7DEB79A83FF
:104A700089837C836B8389819A819C01220F331FF8
:104A8000C901880F991F880F991F820F931F0A97DA
:104A90009A83898389819A812B813C81B9010E9403
:104AA000E3170F900F900F900F90CF91DF91089523
:104AB000DF93CF9300D000D0CDB7DEB79A83898340
:104AC0007C836B8389819A819C01220F331FC901EA
:104AD000880F991F880F991F820F931F05979A833C
:104AE000898389819A812B813C81B9010E94E317D6
:104AF0000F900F900F900F90CF91DF910895DF935B
:104B0000CF9300D000D0CDB7DEB79C838B831A82C1
:104B100019821A8233C08A81282F30E08B819C81D0
:104B2000FC01E20FF31F8081803328F18A81282F56
:104B300030E08B819C81FC01E20FF31F80818A337E
:104B4000D0F48981882F90E09C01220F331FC90186
:104B5000880F991F880F991F820F931F482F8A81F2
:104B6000282F30E08B819C81FC01E20FF31F8081B4
:104B7000840F805389838A818F5F8A838A81282F5B
:104B800030E08B819C81FC01E20FF31F8081882340
:104B900011F689810F900F900F900F90CF91DF91B8
:104BA0000895DF93CF93CDB7DEB7E5970FB6F894AE
:104BB000DEBF0FBECDBF9CAB8BAB6DAB1AAA19AAE3
:104BC00099C183E063E041E00E9426128BA99CA971
:104BD000CC01A0E0B0E0BC01CD010E94A904DC0141
:104BE000CB018DA79EA7AFA7B8AB6DA57EA58FA55E
:104BF00098A92BEA3AEA4AE250E40E941F02DC013B
:104C0000CB0189A79AA7ABA7BCA769A57AA58BA555
:104C10009CA520E030E040E85FE30E942504882363
:104C20001CF481E088A791C069A57AA58BA59CA5F5
:104C300020E030E04FE753E40E94C50318160CF063
:104C40007BC06DA57EA58FA598A920E030E04AE73E
:104C500054E40E941903DC01CB018CA39DA3AEA3F5
:104C6000BFA36CA17DA18EA19FA120E030E04AEFFF
:104C700054E40E941F02DC01CB0188A399A3AAA3DC
:104C8000BBA368A179A18AA19BA120E030E040E804
:104C90005FE30E94250488232CF481E090E09F8F3D
:104CA0008E8F3FC068A179A18AA19BA120E03FEF30
:104CB0004FE757E40E94C50318164CF56CA17DA17F
:104CC0008EA19FA120E030E040E251E40E941F024B
:104CD000DC01CB01BC01CD010E944900DC01CB010C
:104CE0009F8F8E8F0FC088EC90E09D8F8C8F8C8D66
:104CF0009D8D0197F1F79D8F8C8F8E8D9F8D0197E4
:104D00009F8F8E8F8E8D9F8D009769F724C068A12D
:104D100079A18AA19BA10E944900DC01CB019F8F50
:104D20008E8F8E8D9F8D9B8F8A8F8A8D9B8D019705
:104D3000F1F79B8F8A8F0FC069A57AA58BA59CA5DB
:104D40000E944900DC01CB0188A788A5898F898D45
:104D50008A95F1F7898F83E063E040E00E94261294
:104D60008BA99CA9CC01A0E0B0E0BC01CD010E94C0
:104D7000A904DC01CB018D8B9E8BAF8BB88F6D8925
:104D80007E898F89988D2BEA3AEA4AE250E40E94A4
:104D90001F02DC01CB01898B9A8BAB8BBC8B6989A1
:104DA0007A898B899C8920E030E040E85FE30E94AB
:104DB000250488231CF481E0888B91C069897A8955
:104DC0008B899C8920E030E04FE753E40E94C503C3
:104DD00018160CF07BC06D897E898F89988D20E034
:104DE00030E04AE754E40E941903DC01CB018C87D0
:104DF0009D87AE87BF876C857D858E859F8520E0EA
:104E000030E04AEF54E40E941F02DC01CB018887A6
:104E10009987AA87BB87688579858A859B8520E0E5
:104E200030E040E85FE30E94250488232CF481E011
:104E300090E09F838E833FC0688579858A859B85B6
:104E400020E03FEF4FE757E40E94C50318164CF5EA
:104E50006C857D858E859F8520E030E040E251E4C1
:104E60000E941F02DC01CB01BC01CD010E94490060
:104E7000DC01CB019F838E830FC088EC90E09D8383
:104E80008C838C819D810197F1F79D838C838E812A
:104E90009F8101979F838E838E819F81009769F701
:104EA00024C0688579858A859B850E944900DC013C
:104EB000CB019F838E838E819F819B838A838A818E
:104EC0009B810197F1F79B838A830FC069897A8957
:104ED0008B899C890E944900DC01CB01888B8889E1
:104EE000898389818A95F1F7898389A99AA901968D
:104EF0009AAB89AB8DA9282F30E089A99AA982178E
:104F000093070CF45ECEE5960FB6F894DEBF0FBEA5
:104F1000CDBFCF91DF910895629FD001739FF001C3
:104F2000829FE00DF11D649FE00DF11D929FF00D39
:104F3000839FF00D749FF00D659FF00D9927729F70
:104F4000B00DE11DF91F639FB00DE11DF91FBD01FB
:104F5000CF0111240895991B79E004C0991F961779
:104F600008F0961B881F7A95C9F780950895AA1BAB
:104F7000BB1B51E107C0AA1FBB1FA617B70710F044
:104F8000A61BB70B881F991F5A95A9F78095909576
:104F9000BC01CD010895A1E21A2EAA1BBB1BFD0185
:104FA0000DC0AA1FBB1FEE1FFF1FA217B307E40708
:104FB000F50720F0A21BB30BE40BF50B661F771F60
:104FC000881F991F1A9469F7609570958095909540
:104FD0009B01AC01BD01CF0108952F923F924F92EA
:104FE0005F926F927F928F929F92AF92BF92CF9279
:104FF000DF92EF92FF920F931F93CF93DF93CDB782
:10500000DEB7CA1BDB0B0FB6F894DEBF0FBECDBFF9
:1050100009942A88398848885F846E847D848C84CA
:105020009B84AA84B984C884DF80EE80FD800C81D3
:105030001B81AA81B981CE0FD11D0FB6F894DEBFB6
:0C5040000FBECDBFED010895F894FFCF26
:10504C0057656C636F6D6520746F00536D6172747E
:10505C0020486F6D6500393939000D0A666F722072
:10506C0041646D696E206D6F64652C20656E74658E
:10507C007220310D0A666F722075736572206D6F28
:10508C0064652C20656E7465722032203A200D0AFE
:10509C0000456E74722041646D6E2050573A000DBD
:1050AC000A456E7465722041646D696E205061739F
:1050BC0073776F7264203A200D0A000D0A56616CEA
:1050CC00696420505721200D0A0056616C696420D8
:1050DC00505721000D0A57726F6E67205061737321
:1050EC00776F7264212054727920616761696E2038
:1050FC002000496E76616C696420505721000D0ABE
:10510C00202020202020456E74657220796F7572E6
:10511C002055736572206E616D65203A200D0A0072
:10512C00456E747220557372204E616D653A002085
:10513C00202057726F6E672049442C2054727920BE
:10514C00616761696E3A200D0A00496E76616C697F
:10515C006420494421000D0A496E76616C69642013
:10516C0049442C2053797374656D204C6F636B65C7
:10517C0064202100535953206C6F636B65642100CC
:10518C000D0A2048656C6C6F0D0A0048454C4C4F5D
:10519C0000496E76616C6964206D6F6465206E7574
:1051AC006D62657200496E766C6964204D44206EA8
:1051BC006F210041646D696E206D6F6465000D0A8E
:1051CC00546F20616464206E65772075736572205E
:1051DC006F72206D6F646966792C20656E746572D0
:1051EC0020310D0A546F2064656C65746520616E06
:1051FC00206F6C6420757365722C20656E746572FB
:10520C0020320D0A546F207465726D696E6174657D
:10521C002C20656E7465722033203A0D0A20000D27
:10522C000A456E746572207468652075736572200A
:10523C0049442066726F6D203120746F2035203AFE
:10524C00200D0A000D0A456E746572207468652085
:10525C006E65772075736572206E616D65203A20DE
:10526C000D0A000D0A456E74657220746865206E17
:10527C0065772075736572206E616D65277320509C
:10528C0057203A200D0A000D0A0D0A202020207507
:10529C00736572206E616D65206164646564200DB8
:1052AC000A00557365722B000D0A202020202070F7
:1052BC00617373776F7264206164646564200D0A96
:1052CC000050572B000D0A456E746572207468658A
:1052DC00207573657220494420746F2064656C6579
:1052EC0074652066726F6D203120746F2035203A02
:1052FC00200D0A0061616100303030000D0A5573D9
:10530C006572206E616D65207761732064656C65D4
:10531C00746564207375636365737366756C6C79FF
:10532C000D0A00557365722D000D0A53797374655F
:10533C006D207465726D696E61746564210D0A006F
:10534C00535953204F4646000D0A496E76616C69DD
:10535C0064206D6F6465206E756D626572210D0A37
:10536C00000D0A57656C636F6D6520486F6D652184
:10537C000D0A0057454C434F4D4520484F4D4500B5
:10538C000D0A496E76616C69642050572C20537954
:10539C007374656D204C6F636B65642021000D0A7E
:1053AC00506C6561736520456E74657220796F75FC
:1053BC0072204944203A200020202057726F6E67DB
:1053CC002049442C2054727920616761696E0D0A62
:1053DC00000D0A456E74657220596F75722050610C
:1053EC007373776F7264203A200020202057726FFD
:1053FC006E672050572C2054727920616761696E5A
:10540C000D0A000000000000000000000102020371
:10541C00030303040404040404040405050505053E
:10542C00050505050505050505050506060606061B
:10543C000606060606060606060606060606060600
:10544C0006060606060606060606060707070707EB
:10545C0007070707070707070707070707070707D0
:10546C0007070707070707070707070707070707C0
:10547C0007070707070707070707070707070707B0
:10548C00070707070707070707070708080808089B
:10549C000808080808080808080808080808080880
:1054AC000808080808080808080808080808080870
:1054BC000808080808080808080808080808080860
:1054CC000808080808080808080808080808080850
:1054DC000808080808080808080808080808080840
:1054EC000808080808080808080808080808080830
:1054FC000808080808080808080808080808080820
:10550C00080808080808080808080839393900008C
:0A551C00414C59000031313100000C
:00000001FF
